{
  "_format": "hh-sol-artifact-1",
  "contractName": "DiabloNFTGame",
  "sourceName": "contracts/DiabloNFTGame.sol",
  "abi": [
    {
      "inputs": [
        {
          "internalType": "string[]",
          "name": "characterNames",
          "type": "string[]"
        },
        {
          "internalType": "string[]",
          "name": "characterImageURIs",
          "type": "string[]"
        },
        {
          "internalType": "uint256[]",
          "name": "characterHp",
          "type": "uint256[]"
        },
        {
          "internalType": "uint256[]",
          "name": "characterAttackDmg",
          "type": "uint256[]"
        },
        {
          "internalType": "string",
          "name": "bossName",
          "type": "string"
        },
        {
          "internalType": "string",
          "name": "bossImageURI",
          "type": "string"
        },
        {
          "internalType": "uint256",
          "name": "bossHp",
          "type": "uint256"
        },
        {
          "internalType": "uint256",
          "name": "bossAttackDamage",
          "type": "uint256"
        }
      ],
      "stateMutability": "nonpayable",
      "type": "constructor"
    },
    {
      "anonymous": false,
      "inputs": [
        {
          "indexed": true,
          "internalType": "address",
          "name": "owner",
          "type": "address"
        },
        {
          "indexed": true,
          "internalType": "address",
          "name": "approved",
          "type": "address"
        },
        {
          "indexed": true,
          "internalType": "uint256",
          "name": "tokenId",
          "type": "uint256"
        }
      ],
      "name": "Approval",
      "type": "event"
    },
    {
      "anonymous": false,
      "inputs": [
        {
          "indexed": true,
          "internalType": "address",
          "name": "owner",
          "type": "address"
        },
        {
          "indexed": true,
          "internalType": "address",
          "name": "operator",
          "type": "address"
        },
        {
          "indexed": false,
          "internalType": "bool",
          "name": "approved",
          "type": "bool"
        }
      ],
      "name": "ApprovalForAll",
      "type": "event"
    },
    {
      "anonymous": false,
      "inputs": [
        {
          "indexed": false,
          "internalType": "uint256",
          "name": "newBossHp",
          "type": "uint256"
        },
        {
          "indexed": false,
          "internalType": "uint256",
          "name": "newPlayerHp",
          "type": "uint256"
        }
      ],
      "name": "AttackComplete",
      "type": "event"
    },
    {
      "anonymous": false,
      "inputs": [
        {
          "indexed": false,
          "internalType": "address",
          "name": "sender",
          "type": "address"
        },
        {
          "indexed": false,
          "internalType": "uint256",
          "name": "tokenId",
          "type": "uint256"
        },
        {
          "indexed": false,
          "internalType": "uint256",
          "name": "characterIndex",
          "type": "uint256"
        }
      ],
      "name": "CharacterNFTMinted",
      "type": "event"
    },
    {
      "anonymous": false,
      "inputs": [
        {
          "indexed": true,
          "internalType": "address",
          "name": "from",
          "type": "address"
        },
        {
          "indexed": true,
          "internalType": "address",
          "name": "to",
          "type": "address"
        },
        {
          "indexed": true,
          "internalType": "uint256",
          "name": "tokenId",
          "type": "uint256"
        }
      ],
      "name": "Transfer",
      "type": "event"
    },
    {
      "inputs": [
        {
          "internalType": "address",
          "name": "to",
          "type": "address"
        },
        {
          "internalType": "uint256",
          "name": "tokenId",
          "type": "uint256"
        }
      ],
      "name": "approve",
      "outputs": [],
      "stateMutability": "nonpayable",
      "type": "function"
    },
    {
      "inputs": [],
      "name": "attackBoss",
      "outputs": [],
      "stateMutability": "nonpayable",
      "type": "function"
    },
    {
      "inputs": [
        {
          "internalType": "address",
          "name": "owner",
          "type": "address"
        }
      ],
      "name": "balanceOf",
      "outputs": [
        {
          "internalType": "uint256",
          "name": "",
          "type": "uint256"
        }
      ],
      "stateMutability": "view",
      "type": "function"
    },
    {
      "inputs": [],
      "name": "checkIfUserHasNFT",
      "outputs": [
        {
          "components": [
            {
              "internalType": "uint256",
              "name": "characterIndex",
              "type": "uint256"
            },
            {
              "internalType": "string",
              "name": "name",
              "type": "string"
            },
            {
              "internalType": "string",
              "name": "imageURI",
              "type": "string"
            },
            {
              "internalType": "uint256",
              "name": "hp",
              "type": "uint256"
            },
            {
              "internalType": "uint256",
              "name": "maxHp",
              "type": "uint256"
            },
            {
              "internalType": "uint256",
              "name": "attackDamage",
              "type": "uint256"
            }
          ],
          "internalType": "struct DiabloNFTGame.CharacterAttributes",
          "name": "",
          "type": "tuple"
        }
      ],
      "stateMutability": "view",
      "type": "function"
    },
    {
      "inputs": [],
      "name": "diabloBoss",
      "outputs": [
        {
          "internalType": "string",
          "name": "name",
          "type": "string"
        },
        {
          "internalType": "string",
          "name": "imageURI",
          "type": "string"
        },
        {
          "internalType": "uint256",
          "name": "hp",
          "type": "uint256"
        },
        {
          "internalType": "uint256",
          "name": "maxHp",
          "type": "uint256"
        },
        {
          "internalType": "uint256",
          "name": "attackDamage",
          "type": "uint256"
        }
      ],
      "stateMutability": "view",
      "type": "function"
    },
    {
      "inputs": [],
      "name": "getAllDefaultCharacters",
      "outputs": [
        {
          "components": [
            {
              "internalType": "uint256",
              "name": "characterIndex",
              "type": "uint256"
            },
            {
              "internalType": "string",
              "name": "name",
              "type": "string"
            },
            {
              "internalType": "string",
              "name": "imageURI",
              "type": "string"
            },
            {
              "internalType": "uint256",
              "name": "hp",
              "type": "uint256"
            },
            {
              "internalType": "uint256",
              "name": "maxHp",
              "type": "uint256"
            },
            {
              "internalType": "uint256",
              "name": "attackDamage",
              "type": "uint256"
            }
          ],
          "internalType": "struct DiabloNFTGame.CharacterAttributes[]",
          "name": "",
          "type": "tuple[]"
        }
      ],
      "stateMutability": "view",
      "type": "function"
    },
    {
      "inputs": [
        {
          "internalType": "uint256",
          "name": "tokenId",
          "type": "uint256"
        }
      ],
      "name": "getApproved",
      "outputs": [
        {
          "internalType": "address",
          "name": "",
          "type": "address"
        }
      ],
      "stateMutability": "view",
      "type": "function"
    },
    {
      "inputs": [],
      "name": "getDiabloBoss",
      "outputs": [
        {
          "components": [
            {
              "internalType": "string",
              "name": "name",
              "type": "string"
            },
            {
              "internalType": "string",
              "name": "imageURI",
              "type": "string"
            },
            {
              "internalType": "uint256",
              "name": "hp",
              "type": "uint256"
            },
            {
              "internalType": "uint256",
              "name": "maxHp",
              "type": "uint256"
            },
            {
              "internalType": "uint256",
              "name": "attackDamage",
              "type": "uint256"
            }
          ],
          "internalType": "struct DiabloNFTGame.DiabloBoss",
          "name": "",
          "type": "tuple"
        }
      ],
      "stateMutability": "view",
      "type": "function"
    },
    {
      "inputs": [
        {
          "internalType": "address",
          "name": "owner",
          "type": "address"
        },
        {
          "internalType": "address",
          "name": "operator",
          "type": "address"
        }
      ],
      "name": "isApprovedForAll",
      "outputs": [
        {
          "internalType": "bool",
          "name": "",
          "type": "bool"
        }
      ],
      "stateMutability": "view",
      "type": "function"
    },
    {
      "inputs": [
        {
          "internalType": "uint256",
          "name": "_characterIndex",
          "type": "uint256"
        }
      ],
      "name": "mintCharacterNFT",
      "outputs": [],
      "stateMutability": "nonpayable",
      "type": "function"
    },
    {
      "inputs": [],
      "name": "name",
      "outputs": [
        {
          "internalType": "string",
          "name": "",
          "type": "string"
        }
      ],
      "stateMutability": "view",
      "type": "function"
    },
    {
      "inputs": [
        {
          "internalType": "uint256",
          "name": "",
          "type": "uint256"
        }
      ],
      "name": "nftHolderAttributes",
      "outputs": [
        {
          "internalType": "uint256",
          "name": "characterIndex",
          "type": "uint256"
        },
        {
          "internalType": "string",
          "name": "name",
          "type": "string"
        },
        {
          "internalType": "string",
          "name": "imageURI",
          "type": "string"
        },
        {
          "internalType": "uint256",
          "name": "hp",
          "type": "uint256"
        },
        {
          "internalType": "uint256",
          "name": "maxHp",
          "type": "uint256"
        },
        {
          "internalType": "uint256",
          "name": "attackDamage",
          "type": "uint256"
        }
      ],
      "stateMutability": "view",
      "type": "function"
    },
    {
      "inputs": [
        {
          "internalType": "address",
          "name": "",
          "type": "address"
        }
      ],
      "name": "nftHolders",
      "outputs": [
        {
          "internalType": "uint256",
          "name": "",
          "type": "uint256"
        }
      ],
      "stateMutability": "view",
      "type": "function"
    },
    {
      "inputs": [
        {
          "internalType": "uint256",
          "name": "tokenId",
          "type": "uint256"
        }
      ],
      "name": "ownerOf",
      "outputs": [
        {
          "internalType": "address",
          "name": "",
          "type": "address"
        }
      ],
      "stateMutability": "view",
      "type": "function"
    },
    {
      "inputs": [
        {
          "internalType": "address",
          "name": "from",
          "type": "address"
        },
        {
          "internalType": "address",
          "name": "to",
          "type": "address"
        },
        {
          "internalType": "uint256",
          "name": "tokenId",
          "type": "uint256"
        }
      ],
      "name": "safeTransferFrom",
      "outputs": [],
      "stateMutability": "nonpayable",
      "type": "function"
    },
    {
      "inputs": [
        {
          "internalType": "address",
          "name": "from",
          "type": "address"
        },
        {
          "internalType": "address",
          "name": "to",
          "type": "address"
        },
        {
          "internalType": "uint256",
          "name": "tokenId",
          "type": "uint256"
        },
        {
          "internalType": "bytes",
          "name": "_data",
          "type": "bytes"
        }
      ],
      "name": "safeTransferFrom",
      "outputs": [],
      "stateMutability": "nonpayable",
      "type": "function"
    },
    {
      "inputs": [
        {
          "internalType": "address",
          "name": "operator",
          "type": "address"
        },
        {
          "internalType": "bool",
          "name": "approved",
          "type": "bool"
        }
      ],
      "name": "setApprovalForAll",
      "outputs": [],
      "stateMutability": "nonpayable",
      "type": "function"
    },
    {
      "inputs": [
        {
          "internalType": "bytes4",
          "name": "interfaceId",
          "type": "bytes4"
        }
      ],
      "name": "supportsInterface",
      "outputs": [
        {
          "internalType": "bool",
          "name": "",
          "type": "bool"
        }
      ],
      "stateMutability": "view",
      "type": "function"
    },
    {
      "inputs": [],
      "name": "symbol",
      "outputs": [
        {
          "internalType": "string",
          "name": "",
          "type": "string"
        }
      ],
      "stateMutability": "view",
      "type": "function"
    },
    {
      "inputs": [
        {
          "internalType": "uint256",
          "name": "_tokenId",
          "type": "uint256"
        }
      ],
      "name": "tokenURI",
      "outputs": [
        {
          "internalType": "string",
          "name": "",
          "type": "string"
        }
      ],
      "stateMutability": "view",
      "type": "function"
    },
    {
      "inputs": [
        {
          "internalType": "address",
          "name": "from",
          "type": "address"
        },
        {
          "internalType": "address",
          "name": "to",
          "type": "address"
        },
        {
          "internalType": "uint256",
          "name": "tokenId",
          "type": "uint256"
        }
      ],
      "name": "transferFrom",
      "outputs": [],
      "stateMutability": "nonpayable",
      "type": "function"
    }
  ],
  "bytecode": "0x60806040523480156200001157600080fd5b50604051620056d3380380620056d3833981810160405281019062000037919062000a5a565b6040518060400160405280600681526020017f446961626c6f00000000000000000000000000000000000000000000000000008152506040518060400160405280600681526020017f444941424c4f00000000000000000000000000000000000000000000000000008152508160009080519060200190620000bb929190620007ed565b508060019080519060200190620000d4929190620007ed565b5050506040518060a0016040528085815260200184815260200183815260200183815260200182815250600960008201518160000190805190602001906200011e929190620007ed565b5060208201518160010190805190602001906200013d929190620007ed565b50604082015181600201556060820151816003015560808201518160040155905050620002c06040518060600160405280602a8152602001620056a9602a9139600960000180546200018f9062000de5565b80601f0160208091040260200160405190810160405280929190818152602001828054620001bd9062000de5565b80156200020e5780601f10620001e2576101008083540402835291602001916200020e565b820191906000526020600020905b815481529060010190602001808311620001f057829003601f168201915b5050505050600960020154600960010180546200022b9062000de5565b80601f0160208091040260200160405190810160405280929190818152602001828054620002599062000de5565b8015620002aa5780601f106200027e57610100808354040283529160200191620002aa565b820191906000526020600020905b8154815290600101906020018083116200028c57829003601f168201915b50505050506200070260201b62001bd51760201c565b60005b8851811015620006dc5760076040518060c001604052808381526020018b84815181106200031a577f4e487b7100000000000000000000000000000000000000000000000000000000600052603260045260246000fd5b602002602001015181526020018a848151811062000361577f4e487b7100000000000000000000000000000000000000000000000000000000600052603260045260246000fd5b60200260200101518152602001898481518110620003a8577f4e487b7100000000000000000000000000000000000000000000000000000000600052603260045260246000fd5b60200260200101518152602001898481518110620003ef577f4e487b7100000000000000000000000000000000000000000000000000000000600052603260045260246000fd5b6020026020010151815260200188848151811062000436577f4e487b7100000000000000000000000000000000000000000000000000000000600052603260045260246000fd5b6020026020010151815250908060018154018082558091505060019003906000526020600020906006020160009091909190915060008201518160000155602082015181600101908051906020019062000492929190620007ed565b506040820151816002019080519060200190620004b1929190620007ed565b50606082015181600301556080820151816004015560a0820151816005015550506000600782815481106200050f577f4e487b7100000000000000000000000000000000000000000000000000000000600052603260045260246000fd5b90600052602060002090600602016040518060c001604052908160008201548152602001600182018054620005449062000de5565b80601f0160208091040260200160405190810160405280929190818152602001828054620005729062000de5565b8015620005c35780601f106200059757610100808354040283529160200191620005c3565b820191906000526020600020905b815481529060010190602001808311620005a557829003601f168201915b50505050508152602001600282018054620005de9062000de5565b80601f01602080910402602001604051908101604052809291908181526020018280546200060c9062000de5565b80156200065d5780601f1062000631576101008083540402835291602001916200065d565b820191906000526020600020905b8154815290600101906020018083116200063f57829003601f168201915b5050505050815260200160038201548152602001600482015481526020016005820154815250509050620006c460405180606001604052806025815260200162005684602591398260200151836060015184604001516200070260201b62001bd51760201c565b50600181620006d4919062000d48565b9050620002c3565b50620006f46006620007ae60201b62001c771760201c565b505050505050505062000ed3565b620007a8848484846040516024016200071f949392919062000c05565b6040516020818303038152906040527f8d142cdd000000000000000000000000000000000000000000000000000000007bffffffffffffffffffffffffffffffffffffffffffffffffffffffff19166020820180517bffffffffffffffffffffffffffffffffffffffffffffffffffffffff8381831617835250505050620007c460201b60201c565b50505050565b6001816000016000828254019250508190555050565b60008151905060006a636f6e736f6c652e6c6f679050602083016000808483855afa5050505050565b828054620007fb9062000de5565b90600052602060002090601f0160209004810192826200081f57600085556200086b565b82601f106200083a57805160ff19168380011785556200086b565b828001600101855582156200086b579182015b828111156200086a5782518255916020019190600101906200084d565b5b5090506200087a91906200087e565b5090565b5b80821115620008995760008160009055506001016200087f565b5090565b6000620008b4620008ae8462000c9b565b62000c67565b9050808382526020820190508260005b85811015620008f85781518501620008dd888262000a16565b845260208401935060208301925050600181019050620008c4565b5050509392505050565b600062000919620009138462000cca565b62000c67565b905080838252602082019050828560208602820111156200093957600080fd5b60005b858110156200096d578162000952888262000a43565b8452602084019350602083019250506001810190506200093c565b5050509392505050565b60006200098e620009888462000cf9565b62000c67565b905082815260208101848484011115620009a757600080fd5b620009b484828562000daf565b509392505050565b600082601f830112620009ce57600080fd5b8151620009e08482602086016200089d565b91505092915050565b600082601f830112620009fb57600080fd5b815162000a0d84826020860162000902565b91505092915050565b600082601f83011262000a2857600080fd5b815162000a3a84826020860162000977565b91505092915050565b60008151905062000a548162000eb9565b92915050565b600080600080600080600080610100898b03121562000a7857600080fd5b600089015167ffffffffffffffff81111562000a9357600080fd5b62000aa18b828c01620009bc565b985050602089015167ffffffffffffffff81111562000abf57600080fd5b62000acd8b828c01620009bc565b975050604089015167ffffffffffffffff81111562000aeb57600080fd5b62000af98b828c01620009e9565b965050606089015167ffffffffffffffff81111562000b1757600080fd5b62000b258b828c01620009e9565b955050608089015167ffffffffffffffff81111562000b4357600080fd5b62000b518b828c0162000a16565b94505060a089015167ffffffffffffffff81111562000b6f57600080fd5b62000b7d8b828c0162000a16565b93505060c062000b908b828c0162000a43565b92505060e062000ba38b828c0162000a43565b9150509295985092959890939650565b600062000bc08262000d2c565b62000bcc818562000d37565b935062000bde81856020860162000daf565b62000be98162000ea8565b840191505092915050565b62000bff8162000da5565b82525050565b6000608082019050818103600083015262000c21818762000bb3565b9050818103602083015262000c37818662000bb3565b905062000c48604083018562000bf4565b818103606083015262000c5c818462000bb3565b905095945050505050565b6000604051905081810181811067ffffffffffffffff8211171562000c915762000c9062000e79565b5b8060405250919050565b600067ffffffffffffffff82111562000cb95762000cb862000e79565b5b602082029050602081019050919050565b600067ffffffffffffffff82111562000ce85762000ce762000e79565b5b602082029050602081019050919050565b600067ffffffffffffffff82111562000d175762000d1662000e79565b5b601f19601f8301169050602081019050919050565b600081519050919050565b600082825260208201905092915050565b600062000d558262000da5565b915062000d628362000da5565b9250827fffffffffffffffffffffffffffffffffffffffffffffffffffffffffffffffff0382111562000d9a5762000d9962000e1b565b5b828201905092915050565b6000819050919050565b60005b8381101562000dcf57808201518184015260208101905062000db2565b8381111562000ddf576000848401525b50505050565b6000600282049050600182168062000dfe57607f821691505b6020821081141562000e155762000e1462000e4a565b5b50919050565b7f4e487b7100000000000000000000000000000000000000000000000000000000600052601160045260246000fd5b7f4e487b7100000000000000000000000000000000000000000000000000000000600052602260045260246000fd5b7f4e487b7100000000000000000000000000000000000000000000000000000000600052604160045260246000fd5b6000601f19601f8301169050919050565b62000ec48162000da5565b811462000ed057600080fd5b50565b6147a18062000ee36000396000f3fe608060405234801561001057600080fd5b50600436106101375760003560e01c806395d89b41116100b8578063b953084e1161007c578063b953084e14610369578063c87b56dd14610387578063c8cf27f4146103b7578063d4f24c5b146103d5578063e985e9c5146103df578063f8b81ef71461040f57610137565b806395d89b41146102c057806398da4c95146102de578063a22cb46514610313578063a4faee311461032f578063b88d4fde1461034d57610137565b806342842e0e116100ff57806342842e0e146101f25780636352211e1461020e5780636a9939b01461023e57806370a08231146102605780637df124a11461029057610137565b806301ffc9a71461013c57806306fdde031461016c578063081812fc1461018a578063095ea7b3146101ba57806323b872dd146101d6575b600080fd5b6101566004803603810190610151919061301c565b61042b565b6040516101639190613d56565b60405180910390f35b61017461050d565b6040516101819190613d71565b60405180910390f35b6101a4600480360381019061019f919061306e565b61059f565b6040516101b19190613c96565b60405180910390f35b6101d460048036038101906101cf9190612fe0565b610624565b005b6101f060048036038101906101eb9190612eda565b61073c565b005b61020c60048036038101906102079190612eda565b61079c565b005b6102286004803603810190610223919061306e565b6107bc565b6040516102359190613c96565b60405180910390f35b61024661086e565b604051610257959493929190613e40565b60405180910390f35b61027a60048036038101906102759190612e75565b6109a2565b6040516102879190614133565b60405180910390f35b6102aa60048036038101906102a59190612e75565b610a5a565b6040516102b79190614133565b60405180910390f35b6102c8610a72565b6040516102d59190613d71565b60405180910390f35b6102f860048036038101906102f3919061306e565b610b04565b60405161030a9695949392919061414e565b60405180910390f35b61032d60048036038101906103289190612fa4565b610c50565b005b610337610c66565b6040516103449190614111565b60405180910390f35b61036760048036038101906103629190612f29565b610dc2565b005b610371610e24565b60405161037e9190613d34565b60405180910390f35b6103a1600480360381019061039c919061306e565b610fcf565b6040516103ae9190613d71565b60405180910390f35b6103bf6111ea565b6040516103cc91906140ef565b60405180910390f35b6103dd6113c2565b005b6103f960048036038101906103f49190612e9e565b61174d565b6040516104069190613d56565b60405180910390f35b6104296004803603810190610424919061306e565b6117e1565b005b60007f80ac58cd000000000000000000000000000000000000000000000000000000007bffffffffffffffffffffffffffffffffffffffffffffffffffffffff1916827bffffffffffffffffffffffffffffffffffffffffffffffffffffffff191614806104f657507f5b5e139f000000000000000000000000000000000000000000000000000000007bffffffffffffffffffffffffffffffffffffffffffffffffffffffff1916827bffffffffffffffffffffffffffffffffffffffffffffffffffffffff1916145b80610506575061050582611c8d565b5b9050919050565b60606000805461051c9061449f565b80601f01602080910402602001604051908101604052809291908181526020018280546105489061449f565b80156105955780601f1061056a57610100808354040283529160200191610595565b820191906000526020600020905b81548152906001019060200180831161057857829003601f168201915b5050505050905090565b60006105aa82611cf7565b6105e9576040517f08c379a00000000000000000000000000000000000000000000000000000000081526004016105e09061406f565b60405180910390fd5b6004600083815260200190815260200160002060009054906101000a900473ffffffffffffffffffffffffffffffffffffffff169050919050565b600061062f826107bc565b90508073ffffffffffffffffffffffffffffffffffffffff168373ffffffffffffffffffffffffffffffffffffffff1614156106a0576040517f08c379a0000000000000000000000000000000000000000000000000000000008152600401610697906140af565b60405180910390fd5b8073ffffffffffffffffffffffffffffffffffffffff166106bf611d63565b73ffffffffffffffffffffffffffffffffffffffff1614806106ee57506106ed816106e8611d63565b61174d565b5b61072d576040517f08c379a000000000000000000000000000000000000000000000000000000000815260040161072490613fcf565b60405180910390fd5b6107378383611d6b565b505050565b61074d610747611d63565b82611e24565b61078c576040517f08c379a0000000000000000000000000000000000000000000000000000000008152600401610783906140cf565b60405180910390fd5b610797838383611f02565b505050565b6107b783838360405180602001604052806000815250610dc2565b505050565b6000806002600084815260200190815260200160002060009054906101000a900473ffffffffffffffffffffffffffffffffffffffff169050600073ffffffffffffffffffffffffffffffffffffffff168173ffffffffffffffffffffffffffffffffffffffff161415610865576040517f08c379a000000000000000000000000000000000000000000000000000000000815260040161085c9061400f565b60405180910390fd5b80915050919050565b600980600001805461087f9061449f565b80601f01602080910402602001604051908101604052809291908181526020018280546108ab9061449f565b80156108f85780601f106108cd576101008083540402835291602001916108f8565b820191906000526020600020905b8154815290600101906020018083116108db57829003601f168201915b50505050509080600101805461090d9061449f565b80601f01602080910402602001604051908101604052809291908181526020018280546109399061449f565b80156109865780601f1061095b57610100808354040283529160200191610986565b820191906000526020600020905b81548152906001019060200180831161096957829003601f168201915b5050505050908060020154908060030154908060040154905085565b60008073ffffffffffffffffffffffffffffffffffffffff168273ffffffffffffffffffffffffffffffffffffffff161415610a13576040517f08c379a0000000000000000000000000000000000000000000000000000000008152600401610a0a90613fef565b60405180910390fd5b600360008373ffffffffffffffffffffffffffffffffffffffff1673ffffffffffffffffffffffffffffffffffffffff168152602001908152602001600020549050919050565b600e6020528060005260406000206000915090505481565b606060018054610a819061449f565b80601f0160208091040260200160405190810160405280929190818152602001828054610aad9061449f565b8015610afa5780601f10610acf57610100808354040283529160200191610afa565b820191906000526020600020905b815481529060010190602001808311610add57829003601f168201915b5050505050905090565b6008602052806000526040600020600091509050806000015490806001018054610b2d9061449f565b80601f0160208091040260200160405190810160405280929190818152602001828054610b599061449f565b8015610ba65780601f10610b7b57610100808354040283529160200191610ba6565b820191906000526020600020905b815481529060010190602001808311610b8957829003601f168201915b505050505090806002018054610bbb9061449f565b80601f0160208091040260200160405190810160405280929190818152602001828054610be79061449f565b8015610c345780601f10610c0957610100808354040283529160200191610c34565b820191906000526020600020905b815481529060010190602001808311610c1757829003601f168201915b5050505050908060030154908060040154908060050154905086565b610c62610c5b611d63565b838361215e565b5050565b610c6e612c9c565b60096040518060a0016040529081600082018054610c8b9061449f565b80601f0160208091040260200160405190810160405280929190818152602001828054610cb79061449f565b8015610d045780601f10610cd957610100808354040283529160200191610d04565b820191906000526020600020905b815481529060010190602001808311610ce757829003601f168201915b50505050508152602001600182018054610d1d9061449f565b80601f0160208091040260200160405190810160405280929190818152602001828054610d499061449f565b8015610d965780601f10610d6b57610100808354040283529160200191610d96565b820191906000526020600020905b815481529060010190602001808311610d7957829003601f168201915b505050505081526020016002820154815260200160038201548152602001600482015481525050905090565b610dd3610dcd611d63565b83611e24565b610e12576040517f08c379a0000000000000000000000000000000000000000000000000000000008152600401610e09906140cf565b60405180910390fd5b610e1e848484846122cb565b50505050565b60606007805480602002602001604051908101604052809291908181526020016000905b82821015610fc657838290600052602060002090600602016040518060c001604052908160008201548152602001600182018054610e859061449f565b80601f0160208091040260200160405190810160405280929190818152602001828054610eb19061449f565b8015610efe5780601f10610ed357610100808354040283529160200191610efe565b820191906000526020600020905b815481529060010190602001808311610ee157829003601f168201915b50505050508152602001600282018054610f179061449f565b80601f0160208091040260200160405190810160405280929190818152602001828054610f439061449f565b8015610f905780601f10610f6557610100808354040283529160200191610f90565b820191906000526020600020905b815481529060010190602001808311610f7357829003601f168201915b50505050508152602001600382015481526020016004820154815260200160058201548152505081526020019060010190610e48565b50505050905090565b60606000600860008481526020019081526020016000206040518060c00160405290816000820154815260200160018201805461100b9061449f565b80601f01602080910402602001604051908101604052809291908181526020018280546110379061449f565b80156110845780601f1061105957610100808354040283529160200191611084565b820191906000526020600020905b81548152906001019060200180831161106757829003601f168201915b5050505050815260200160028201805461109d9061449f565b80601f01602080910402602001604051908101604052809291908181526020018280546110c99061449f565b80156111165780601f106110eb57610100808354040283529160200191611116565b820191906000526020600020905b8154815290600101906020018083116110f957829003601f168201915b5050505050815260200160038201548152602001600482015481526020016005820154815250509050600061114e8260600151612327565b9050600061115f8360800151612327565b905060006111708460a00151612327565b905060006111b6856020015161118589612327565b87604001518787876040516020016111a296959493929190613bcf565b6040516020818303038152906040526124d4565b90506000816040516020016111cb9190613c74565b6040516020818303038152906040529050809650505050505050919050565b6111f2612ccb565b6000600e60003373ffffffffffffffffffffffffffffffffffffffff1673ffffffffffffffffffffffffffffffffffffffff16815260200190815260200160002054905060008111156113b157600860008281526020019081526020016000206040518060c0016040529081600082015481526020016001820180546112779061449f565b80601f01602080910402602001604051908101604052809291908181526020018280546112a39061449f565b80156112f05780601f106112c5576101008083540402835291602001916112f0565b820191906000526020600020905b8154815290600101906020018083116112d357829003601f168201915b505050505081526020016002820180546113099061449f565b80601f01602080910402602001604051908101604052809291908181526020018280546113359061449f565b80156113825780601f1061135757610100808354040283529160200191611382565b820191906000526020600020905b81548152906001019060200180831161136557829003601f168201915b5050505050815260200160038201548152602001600482015481526020016005820154815250509150506113bf565b6113b9612ccb565b80925050505b90565b6000600e60003373ffffffffffffffffffffffffffffffffffffffff1673ffffffffffffffffffffffffffffffffffffffff16815260200190815260200160002054905060006008600083815260200190815260200160002090506114d56040518060600160405280603c8152602001614730603c91398260010180546114489061449f565b80601f01602080910402602001604051908101604052809291908181526020018280546114749061449f565b80156114c15780601f10611496576101008083540402835291602001916114c1565b820191906000526020600020905b8154815290600101906020018083116114a457829003601f168201915b505050505083600301548460050154612692565b6115ad6040518060400160405280601b81526020017f426f73732025732068617320257320485020616e6420257320414400000000008152506009600001805461151e9061449f565b80601f016020809104026020016040519081016040528092919081815260200182805461154a9061449f565b80156115975780601f1061156c57610100808354040283529160200191611597565b820191906000526020600020905b81548152906001019060200180831161157a57829003601f168201915b5050505050600960020154600960040154612692565b60008160030154116115f4576040517f08c379a00000000000000000000000000000000000000000000000000000000081526004016115eb9061402f565b60405180910390fd5b60006009600201541161163c576040517f08c379a000000000000000000000000000000000000000000000000000000000815260040161163390613f2f565b60405180910390fd5b8060050154600960020154101561165d57600060096002018190555061167c565b806005015460096002015461167291906143b5565b6009600201819055505b6009600401548160030154101561169c57600081600301819055506116ba565b60096004015481600301546116b191906143b5565b81600301819055505b6116e160405180606001604052806025815260200161467560259139600960020154612734565b6117076040518060600160405280602881526020016146da602891398260030154612734565b7f838ab28464562786a6c4ab2311964b82fa60bd9b14aa7e856af1f3f18d41a41460096002015482600301546040516117419291906141bd565b60405180910390a15050565b6000600560008473ffffffffffffffffffffffffffffffffffffffff1673ffffffffffffffffffffffffffffffffffffffff16815260200190815260200160002060008373ffffffffffffffffffffffffffffffffffffffff1673ffffffffffffffffffffffffffffffffffffffff16815260200190815260200160002060009054906101000a900460ff16905092915050565b60006117ed60066127d0565b90506117f933826127de565b6040518060c0016040528083815260200160078481548110611844577f4e487b7100000000000000000000000000000000000000000000000000000000600052603260045260246000fd5b906000526020600020906006020160010180546118609061449f565b80601f016020809104026020016040519081016040528092919081815260200182805461188c9061449f565b80156118d95780601f106118ae576101008083540402835291602001916118d9565b820191906000526020600020905b8154815290600101906020018083116118bc57829003601f168201915b505050505081526020016007848154811061191d577f4e487b7100000000000000000000000000000000000000000000000000000000600052603260045260246000fd5b906000526020600020906006020160020180546119399061449f565b80601f01602080910402602001604051908101604052809291908181526020018280546119659061449f565b80156119b25780601f10611987576101008083540402835291602001916119b2565b820191906000526020600020905b81548152906001019060200180831161199557829003601f168201915b50505050508152602001600784815481106119f6577f4e487b7100000000000000000000000000000000000000000000000000000000600052603260045260246000fd5b906000526020600020906006020160030154815260200160078481548110611a47577f4e487b7100000000000000000000000000000000000000000000000000000000600052603260045260246000fd5b906000526020600020906006020160040154815260200160078481548110611a98577f4e487b7100000000000000000000000000000000000000000000000000000000600052603260045260246000fd5b90600052602060002090600602016005015481525060086000838152602001908152602001600020600082015181600001556020820151816001019080519060200190611ae6929190612d01565b506040820151816002019080519060200190611b03929190612d01565b50606082015181600301556080820151816004015560a08201518160050155905050611b486040518060600160405280602e8152602001614702602e913982846127fc565b80600e60003373ffffffffffffffffffffffffffffffffffffffff1673ffffffffffffffffffffffffffffffffffffffff16815260200190815260200160002081905550611b966006611c77565b7f4bc303fd457a97b4691b9af582ce71868a3d258638c8d4f8c60988a0f0bfb8cd338284604051611bc993929190613cfd565b60405180910390a15050565b611c7184848484604051602401611bef9493929190613d93565b6040516020818303038152906040527f8d142cdd000000000000000000000000000000000000000000000000000000007bffffffffffffffffffffffffffffffffffffffffffffffffffffffff19166020820180517bffffffffffffffffffffffffffffffffffffffffffffffffffffffff838183161783525050505061289b565b50505050565b6001816000016000828254019250508190555050565b60007f01ffc9a7000000000000000000000000000000000000000000000000000000007bffffffffffffffffffffffffffffffffffffffffffffffffffffffff1916827bffffffffffffffffffffffffffffffffffffffffffffffffffffffff1916149050919050565b60008073ffffffffffffffffffffffffffffffffffffffff166002600084815260200190815260200160002060009054906101000a900473ffffffffffffffffffffffffffffffffffffffff1673ffffffffffffffffffffffffffffffffffffffff1614159050919050565b600033905090565b816004600083815260200190815260200160002060006101000a81548173ffffffffffffffffffffffffffffffffffffffff021916908373ffffffffffffffffffffffffffffffffffffffff160217905550808273ffffffffffffffffffffffffffffffffffffffff16611dde836107bc565b73ffffffffffffffffffffffffffffffffffffffff167f8c5be1e5ebec7d5bd14f71427d1e84f3dd0314c0f7b2291e5b200ac8c7c3b92560405160405180910390a45050565b6000611e2f82611cf7565b611e6e576040517f08c379a0000000000000000000000000000000000000000000000000000000008152600401611e6590613faf565b60405180910390fd5b6000611e79836107bc565b90508073ffffffffffffffffffffffffffffffffffffffff168473ffffffffffffffffffffffffffffffffffffffff161480611ee857508373ffffffffffffffffffffffffffffffffffffffff16611ed08461059f565b73ffffffffffffffffffffffffffffffffffffffff16145b80611ef95750611ef8818561174d565b5b91505092915050565b8273ffffffffffffffffffffffffffffffffffffffff16611f22826107bc565b73ffffffffffffffffffffffffffffffffffffffff1614611f78576040517f08c379a0000000000000000000000000000000000000000000000000000000008152600401611f6f9061408f565b60405180910390fd5b600073ffffffffffffffffffffffffffffffffffffffff168273ffffffffffffffffffffffffffffffffffffffff161415611fe8576040517f08c379a0000000000000000000000000000000000000000000000000000000008152600401611fdf90613f6f565b60405180910390fd5b611ff38383836128c4565b611ffe600082611d6b565b6001600360008573ffffffffffffffffffffffffffffffffffffffff1673ffffffffffffffffffffffffffffffffffffffff168152602001908152602001600020600082825461204e91906143b5565b925050819055506001600360008473ffffffffffffffffffffffffffffffffffffffff1673ffffffffffffffffffffffffffffffffffffffff16815260200190815260200160002060008282546120a591906142d4565b92505081905550816002600083815260200190815260200160002060006101000a81548173ffffffffffffffffffffffffffffffffffffffff021916908373ffffffffffffffffffffffffffffffffffffffff160217905550808273ffffffffffffffffffffffffffffffffffffffff168473ffffffffffffffffffffffffffffffffffffffff167fddf252ad1be2c89b69c2b068fc378daa952ba7f163c4a11628f55a4df523b3ef60405160405180910390a4505050565b8173ffffffffffffffffffffffffffffffffffffffff168373ffffffffffffffffffffffffffffffffffffffff1614156121cd576040517f08c379a00000000000000000000000000000000000000000000000000000000081526004016121c490613f8f565b60405180910390fd5b80600560008573ffffffffffffffffffffffffffffffffffffffff1673ffffffffffffffffffffffffffffffffffffffff16815260200190815260200160002060008473ffffffffffffffffffffffffffffffffffffffff1673ffffffffffffffffffffffffffffffffffffffff16815260200190815260200160002060006101000a81548160ff0219169083151502179055508173ffffffffffffffffffffffffffffffffffffffff168373ffffffffffffffffffffffffffffffffffffffff167f17307eab39ab6107e8899845ad3d59bd9653f200f220920489ca2b5937696c31836040516122be9190613d56565b60405180910390a3505050565b6122d6848484611f02565b6122e2848484846128c9565b612321576040517f08c379a000000000000000000000000000000000000000000000000000000000815260040161231890613f0f565b60405180910390fd5b50505050565b6060600082141561236f576040518060400160405280600181526020017f300000000000000000000000000000000000000000000000000000000000000081525090506124cf565b600082905060005b600082146123a157808061238a906144d1565b915050600a8261239a919061432a565b9150612377565b60008167ffffffffffffffff8111156123e3577f4e487b7100000000000000000000000000000000000000000000000000000000600052604160045260246000fd5b6040519080825280601f01601f1916602001820160405280156124155781602001600182028036833780820191505090505b5090505b600085146124c85760018261242e91906143b5565b9150600a8561243d919061451a565b603061244991906142d4565b60f81b818381518110612485577f4e487b7100000000000000000000000000000000000000000000000000000000600052603260045260246000fd5b60200101907effffffffffffffffffffffffffffffffffffffffffffffffffffffffffffff1916908160001a905350600a856124c1919061432a565b9450612419565b8093505050505b919050565b606060008251905060008114156124fd576040518060200160405280600081525091505061268d565b6000600360028361250e91906142d4565b612518919061432a565b6004612524919061435b565b9050600060208261253591906142d4565b67ffffffffffffffff811115612574577f4e487b7100000000000000000000000000000000000000000000000000000000600052604160045260246000fd5b6040519080825280601f01601f1916602001820160405280156125a65781602001600182028036833780820191505090505b509050600060405180606001604052806040815260200161469a604091399050600181016020830160005b8681101561264a5760038101905062ffffff818a015116603f8160121c168401518060081b905060ff603f83600c1c1686015116810190508060081b905060ff603f8360061c1686015116810190508060081b905060ff603f831686015116810190508060e01b905080845260048401935050506125d1565b50600386066001811461266457600281146126745761267f565b613d3d60f01b600283035261267f565b603d60f81b60018303525b508484525050819450505050505b919050565b61272e848484846040516024016126ac9493929190613ded565b6040516020818303038152906040527fd5cf17d0000000000000000000000000000000000000000000000000000000007bffffffffffffffffffffffffffffffffffffffffffffffffffffffff19166020820180517bffffffffffffffffffffffffffffffffffffffffffffffffffffffff838183161783525050505061289b565b50505050565b6127cc828260405160240161274a929190613ea1565b6040516020818303038152906040527f9710a9d0000000000000000000000000000000000000000000000000000000007bffffffffffffffffffffffffffffffffffffffffffffffffffffffff19166020820180517bffffffffffffffffffffffffffffffffffffffffffffffffffffffff838183161783525050505061289b565b5050565b600081600001549050919050565b6127f8828260405180602001604052806000815250612a60565b5050565b61289683838360405160240161281493929190613ed1565b6040516020818303038152906040527f969cdd03000000000000000000000000000000000000000000000000000000007bffffffffffffffffffffffffffffffffffffffffffffffffffffffff19166020820180517bffffffffffffffffffffffffffffffffffffffffffffffffffffffff838183161783525050505061289b565b505050565b60008151905060006a636f6e736f6c652e6c6f679050602083016000808483855afa5050505050565b505050565b60006128ea8473ffffffffffffffffffffffffffffffffffffffff16612abb565b15612a53578373ffffffffffffffffffffffffffffffffffffffff1663150b7a02612913611d63565b8786866040518563ffffffff1660e01b81526004016129359493929190613cb1565b602060405180830381600087803b15801561294f57600080fd5b505af192505050801561298057506040513d601f19601f8201168201806040525081019061297d9190613045565b60015b612a03573d80600081146129b0576040519150601f19603f3d011682016040523d82523d6000602084013e6129b5565b606091505b506000815114156129fb576040517f08c379a00000000000000000000000000000000000000000000000000000000081526004016129f290613f0f565b60405180910390fd5b805181602001fd5b63150b7a0260e01b7bffffffffffffffffffffffffffffffffffffffffffffffffffffffff1916817bffffffffffffffffffffffffffffffffffffffffffffffffffffffff191614915050612a58565b600190505b949350505050565b612a6a8383612ace565b612a7760008484846128c9565b612ab6576040517f08c379a0000000000000000000000000000000000000000000000000000000008152600401612aad90613f0f565b60405180910390fd5b505050565b600080823b905060008111915050919050565b600073ffffffffffffffffffffffffffffffffffffffff168273ffffffffffffffffffffffffffffffffffffffff161415612b3e576040517f08c379a0000000000000000000000000000000000000000000000000000000008152600401612b359061404f565b60405180910390fd5b612b4781611cf7565b15612b87576040517f08c379a0000000000000000000000000000000000000000000000000000000008152600401612b7e90613f4f565b60405180910390fd5b612b93600083836128c4565b6001600360008473ffffffffffffffffffffffffffffffffffffffff1673ffffffffffffffffffffffffffffffffffffffff1681526020019081526020016000206000828254612be391906142d4565b92505081905550816002600083815260200190815260200160002060006101000a81548173ffffffffffffffffffffffffffffffffffffffff021916908373ffffffffffffffffffffffffffffffffffffffff160217905550808273ffffffffffffffffffffffffffffffffffffffff16600073ffffffffffffffffffffffffffffffffffffffff167fddf252ad1be2c89b69c2b068fc378daa952ba7f163c4a11628f55a4df523b3ef60405160405180910390a45050565b6040518060a0016040528060608152602001606081526020016000815260200160008152602001600081525090565b6040518060c001604052806000815260200160608152602001606081526020016000815260200160008152602001600081525090565b828054612d0d9061449f565b90600052602060002090601f016020900481019282612d2f5760008555612d76565b82601f10612d4857805160ff1916838001178555612d76565b82800160010185558215612d76579182015b82811115612d75578251825591602001919060010190612d5a565b5b509050612d839190612d87565b5090565b5b80821115612da0576000816000905550600101612d88565b5090565b6000612db7612db284614217565b6141e6565b905082815260208101848484011115612dcf57600080fd5b612dda84828561445d565b509392505050565b600081359050612df181614618565b92915050565b600081359050612e068161462f565b92915050565b600081359050612e1b81614646565b92915050565b600081519050612e3081614646565b92915050565b600082601f830112612e4757600080fd5b8135612e57848260208601612da4565b91505092915050565b600081359050612e6f8161465d565b92915050565b600060208284031215612e8757600080fd5b6000612e9584828501612de2565b91505092915050565b60008060408385031215612eb157600080fd5b6000612ebf85828601612de2565b9250506020612ed085828601612de2565b9150509250929050565b600080600060608486031215612eef57600080fd5b6000612efd86828701612de2565b9350506020612f0e86828701612de2565b9250506040612f1f86828701612e60565b9150509250925092565b60008060008060808587031215612f3f57600080fd5b6000612f4d87828801612de2565b9450506020612f5e87828801612de2565b9350506040612f6f87828801612e60565b925050606085013567ffffffffffffffff811115612f8c57600080fd5b612f9887828801612e36565b91505092959194509250565b60008060408385031215612fb757600080fd5b6000612fc585828601612de2565b9250506020612fd685828601612df7565b9150509250929050565b60008060408385031215612ff357600080fd5b600061300185828601612de2565b925050602061301285828601612e60565b9150509250929050565b60006020828403121561302e57600080fd5b600061303c84828501612e0c565b91505092915050565b60006020828403121561305757600080fd5b600061306584828501612e21565b91505092915050565b60006020828403121561308057600080fd5b600061308e84828501612e60565b91505092915050565b60006130a38383613a14565b905092915050565b6130b4816143e9565b82525050565b60006130c582614257565b6130cf8185614285565b9350836020820285016130e185614247565b8060005b8581101561311d57848403895281516130fe8582613097565b945061310983614278565b925060208a019950506001810190506130e5565b50829750879550505050505092915050565b613138816143fb565b82525050565b600061314982614262565b6131538185614296565b935061316381856020860161446c565b61316c81614607565b840191505092915050565b60006131828261426d565b61318c81856142a7565b935061319c81856020860161446c565b6131a581614607565b840191505092915050565b60006131bb8261426d565b6131c581856142b8565b93506131d581856020860161446c565b6131de81614607565b840191505092915050565b60006131f48261426d565b6131fe81856142c9565b935061320e81856020860161446c565b80840191505092915050565b6000613227600b836142c9565b91507f202d2d204e465420233a200000000000000000000000000000000000000000006000830152600b82019050919050565b60006132676032836142b8565b91507f4552433732313a207472616e7366657220746f206e6f6e20455243373231526560008301527f63656976657220696d706c656d656e74657200000000000000000000000000006020830152604082019050919050565b60006132cd6028836142b8565b91507f4572726f723a20626f7373206d757374206861766520485020746f206174746160008301527f636b20626f73732e0000000000000000000000000000000000000000000000006020830152604082019050919050565b6000613333601c836142b8565b91507f4552433732313a20746f6b656e20616c7265616479206d696e746564000000006000830152602082019050919050565b60006133736032836142c9565b91507f222c20226465736372697074696f6e223a2022416e2065706963204e4654222c60008301527f2022696d616765223a2022697066733a2f2f00000000000000000000000000006020830152603282019050919050565b60006133d9600e836142c9565b91507f2c20226d61785f76616c7565223a0000000000000000000000000000000000006000830152600e82019050919050565b60006134196024836142b8565b91507f4552433732313a207472616e7366657220746f20746865207a65726f2061646460008301527f72657373000000000000000000000000000000000000000000000000000000006020830152604082019050919050565b600061347f6019836142b8565b91507f4552433732313a20617070726f766520746f2063616c6c6572000000000000006000830152602082019050919050565b60006134bf602c836142b8565b91507f4552433732313a206f70657261746f7220717565727920666f72206e6f6e657860008301527f697374656e7420746f6b656e00000000000000000000000000000000000000006020830152604082019050919050565b60006135256038836142b8565b91507f4552433732313a20617070726f76652063616c6c6572206973206e6f74206f7760008301527f6e6572206e6f7220617070726f76656420666f7220616c6c00000000000000006020830152604082019050919050565b600061358b602a836142b8565b91507f4552433732313a2062616c616e636520717565727920666f7220746865207a6560008301527f726f2061646472657373000000000000000000000000000000000000000000006020830152604082019050919050565b60006135f16029836142b8565b91507f4552433732313a206f776e657220717565727920666f72206e6f6e657869737460008301527f656e7420746f6b656e00000000000000000000000000000000000000000000006020830152604082019050919050565b6000613657602d836142b8565b91507f4572726f723a20636861726163746572206d757374206861766520485020746f60008301527f2061747461636b20626f73732e000000000000000000000000000000000000006020830152604082019050919050565b60006136bd6004836142c9565b91507f7d205d7d000000000000000000000000000000000000000000000000000000006000830152600482019050919050565b60006136fd6020836142b8565b91507f4552433732313a206d696e7420746f20746865207a65726f20616464726573736000830152602082019050919050565b600061373d602c836142b8565b91507f4552433732313a20617070726f76656420717565727920666f72206e6f6e657860008301527f697374656e7420746f6b656e00000000000000000000000000000000000000006020830152604082019050919050565b60006137a36029836142b8565b91507f4552433732313a207472616e73666572206f6620746f6b656e2074686174206960008301527f73206e6f74206f776e00000000000000000000000000000000000000000000006020830152604082019050919050565b6000613809600a836142c9565b91507f7b226e616d65223a2022000000000000000000000000000000000000000000006000830152600a82019050919050565b60006138496021836142b8565b91507f4552433732313a20617070726f76616c20746f2063757272656e74206f776e6560008301527f72000000000000000000000000000000000000000000000000000000000000006020830152604082019050919050565b60006138af601d836142c9565b91507f646174613a6170706c69636174696f6e2f6a736f6e3b6261736536342c0000006000830152601d82019050919050565b60006138ef6031836142b8565b91507f4552433732313a207472616e736665722063616c6c6572206973206e6f74206f60008301527f776e6572206e6f7220617070726f7665640000000000000000000000000000006020830152604082019050919050565b6000613955603d836142c9565b91507f222c202261747472696275746573223a205b207b202274726169745f7479706560008301527f223a20224865616c746820506f696e7473222c202276616c7565223a200000006020830152603d82019050919050565b60006139bb602d836142c9565b91507f7d2c207b202274726169745f74797065223a202241747461636b2044616d616760008301527f65222c202276616c7565223a20000000000000000000000000000000000000006020830152602d82019050919050565b600060c083016000830151613a2c6000860182613bb1565b5060208301518482036020860152613a448282613177565b91505060408301518482036040860152613a5e8282613177565b9150506060830151613a736060860182613bb1565b506080830151613a866080860182613bb1565b5060a0830151613a9960a0860182613bb1565b508091505092915050565b600060c083016000830151613abc6000860182613bb1565b5060208301518482036020860152613ad48282613177565b91505060408301518482036040860152613aee8282613177565b9150506060830151613b036060860182613bb1565b506080830151613b166080860182613bb1565b5060a0830151613b2960a0860182613bb1565b508091505092915050565b600060a0830160008301518482036000860152613b518282613177565b91505060208301518482036020860152613b6b8282613177565b9150506040830151613b806040860182613bb1565b506060830151613b936060860182613bb1565b506080830151613ba66080860182613bb1565b508091505092915050565b613bba81614453565b82525050565b613bc981614453565b82525050565b6000613bda826137fc565b9150613be682896131e9565b9150613bf18261321a565b9150613bfd82886131e9565b9150613c0882613366565b9150613c1482876131e9565b9150613c1f82613948565b9150613c2b82866131e9565b9150613c36826133cc565b9150613c4282856131e9565b9150613c4d826139ae565b9150613c5982846131e9565b9150613c64826136b0565b9150819050979650505050505050565b6000613c7f826138a2565b9150613c8b82846131e9565b915081905092915050565b6000602082019050613cab60008301846130ab565b92915050565b6000608082019050613cc660008301876130ab565b613cd360208301866130ab565b613ce06040830185613bc0565b8181036060830152613cf2818461313e565b905095945050505050565b6000606082019050613d1260008301866130ab565b613d1f6020830185613bc0565b613d2c6040830184613bc0565b949350505050565b60006020820190508181036000830152613d4e81846130ba565b905092915050565b6000602082019050613d6b600083018461312f565b92915050565b60006020820190508181036000830152613d8b81846131b0565b905092915050565b60006080820190508181036000830152613dad81876131b0565b90508181036020830152613dc181866131b0565b9050613dd06040830185613bc0565b8181036060830152613de281846131b0565b905095945050505050565b60006080820190508181036000830152613e0781876131b0565b90508181036020830152613e1b81866131b0565b9050613e2a6040830185613bc0565b613e376060830184613bc0565b95945050505050565b600060a0820190508181036000830152613e5a81886131b0565b90508181036020830152613e6e81876131b0565b9050613e7d6040830186613bc0565b613e8a6060830185613bc0565b613e976080830184613bc0565b9695505050505050565b60006040820190508181036000830152613ebb81856131b0565b9050613eca6020830184613bc0565b9392505050565b60006060820190508181036000830152613eeb81866131b0565b9050613efa6020830185613bc0565b613f076040830184613bc0565b949350505050565b60006020820190508181036000830152613f288161325a565b9050919050565b60006020820190508181036000830152613f48816132c0565b9050919050565b60006020820190508181036000830152613f6881613326565b9050919050565b60006020820190508181036000830152613f888161340c565b9050919050565b60006020820190508181036000830152613fa881613472565b9050919050565b60006020820190508181036000830152613fc8816134b2565b9050919050565b60006020820190508181036000830152613fe881613518565b9050919050565b600060208201905081810360008301526140088161357e565b9050919050565b60006020820190508181036000830152614028816135e4565b9050919050565b600060208201905081810360008301526140488161364a565b9050919050565b60006020820190508181036000830152614068816136f0565b9050919050565b6000602082019050818103600083015261408881613730565b9050919050565b600060208201905081810360008301526140a881613796565b9050919050565b600060208201905081810360008301526140c88161383c565b9050919050565b600060208201905081810360008301526140e8816138e2565b9050919050565b600060208201905081810360008301526141098184613aa4565b905092915050565b6000602082019050818103600083015261412b8184613b34565b905092915050565b60006020820190506141486000830184613bc0565b92915050565b600060c0820190506141636000830189613bc0565b818103602083015261417581886131b0565b9050818103604083015261418981876131b0565b90506141986060830186613bc0565b6141a56080830185613bc0565b6141b260a0830184613bc0565b979650505050505050565b60006040820190506141d26000830185613bc0565b6141df6020830184613bc0565b9392505050565b6000604051905081810181811067ffffffffffffffff8211171561420d5761420c6145d8565b5b8060405250919050565b600067ffffffffffffffff821115614232576142316145d8565b5b601f19601f8301169050602081019050919050565b6000819050602082019050919050565b600081519050919050565b600081519050919050565b600081519050919050565b6000602082019050919050565b600082825260208201905092915050565b600082825260208201905092915050565b600082825260208201905092915050565b600082825260208201905092915050565b600081905092915050565b60006142df82614453565b91506142ea83614453565b9250827fffffffffffffffffffffffffffffffffffffffffffffffffffffffffffffffff0382111561431f5761431e61454b565b5b828201905092915050565b600061433582614453565b915061434083614453565b9250826143505761434f61457a565b5b828204905092915050565b600061436682614453565b915061437183614453565b9250817fffffffffffffffffffffffffffffffffffffffffffffffffffffffffffffffff04831182151516156143aa576143a961454b565b5b828202905092915050565b60006143c082614453565b91506143cb83614453565b9250828210156143de576143dd61454b565b5b828203905092915050565b60006143f482614433565b9050919050565b60008115159050919050565b60007fffffffff0000000000000000000000000000000000000000000000000000000082169050919050565b600073ffffffffffffffffffffffffffffffffffffffff82169050919050565b6000819050919050565b82818337600083830152505050565b60005b8381101561448a57808201518184015260208101905061446f565b83811115614499576000848401525b50505050565b600060028204905060018216806144b757607f821691505b602082108114156144cb576144ca6145a9565b5b50919050565b60006144dc82614453565b91507fffffffffffffffffffffffffffffffffffffffffffffffffffffffffffffffff82141561450f5761450e61454b565b5b600182019050919050565b600061452582614453565b915061453083614453565b9250826145405761453f61457a565b5b828206905092915050565b7f4e487b7100000000000000000000000000000000000000000000000000000000600052601160045260246000fd5b7f4e487b7100000000000000000000000000000000000000000000000000000000600052601260045260246000fd5b7f4e487b7100000000000000000000000000000000000000000000000000000000600052602260045260246000fd5b7f4e487b7100000000000000000000000000000000000000000000000000000000600052604160045260246000fd5b6000601f19601f8301169050919050565b614621816143e9565b811461462c57600080fd5b50565b614638816143fb565b811461464357600080fd5b50565b61464f81614407565b811461465a57600080fd5b50565b61466681614453565b811461467157600080fd5b5056fe506c617965722061747461636b656420626f73732e204e657720626f73732068703a2025734142434445464748494a4b4c4d4e4f505152535455565758595a6162636465666768696a6b6c6d6e6f707172737475767778797a303132333435363738392b2f426f73732061747461636b656420706c617965722e204e657720706c617965722068703a2025730a4d696e746564204e465420772f20746f6b656e496420257320616e6420636861726163746572496e6465782025730a506c6179657220772f206368617261637465722025732061626f757420746f2061747461636b2e2048617320257320485020616e64202573204144a2646970667358221220461f1829564781bc76eca06fe62e605fd100567091f356df678a78fe55c5d7e664736f6c63430008000033446f6e6520696e697469616c697a696e6720257320772f2048502025732c20696d67202573446f6e6520696e697469616c697a696e6720626f737320257320772f2048502025732c20696d67202573",
  "linkReferences": {},
  "deployedLinkReferences": {}
}